{
  "contractName": "Lottery",
  "abi": [
    {
      "inputs": [],
      "stateMutability": "nonpayable",
      "type": "constructor"
    },
    {
      "inputs": [],
      "name": "manager",
      "outputs": [
        {
          "internalType": "address",
          "name": "",
          "type": "address"
        }
      ],
      "stateMutability": "view",
      "type": "function",
      "constant": true
    },
    {
      "inputs": [
        {
          "internalType": "uint256",
          "name": "",
          "type": "uint256"
        }
      ],
      "name": "participants",
      "outputs": [
        {
          "internalType": "address payable",
          "name": "",
          "type": "address"
        }
      ],
      "stateMutability": "view",
      "type": "function",
      "constant": true
    },
    {
      "inputs": [],
      "name": "winner",
      "outputs": [
        {
          "internalType": "address payable",
          "name": "",
          "type": "address"
        }
      ],
      "stateMutability": "view",
      "type": "function",
      "constant": true
    },
    {
      "stateMutability": "payable",
      "type": "receive",
      "payable": true
    },
    {
      "inputs": [],
      "name": "getBalance",
      "outputs": [
        {
          "internalType": "uint256",
          "name": "",
          "type": "uint256"
        }
      ],
      "stateMutability": "view",
      "type": "function",
      "constant": true
    },
    {
      "inputs": [],
      "name": "noOfParticipants",
      "outputs": [
        {
          "internalType": "uint256",
          "name": "",
          "type": "uint256"
        }
      ],
      "stateMutability": "view",
      "type": "function",
      "constant": true
    },
    {
      "inputs": [],
      "name": "random",
      "outputs": [
        {
          "internalType": "uint256",
          "name": "",
          "type": "uint256"
        }
      ],
      "stateMutability": "view",
      "type": "function",
      "constant": true
    },
    {
      "inputs": [],
      "name": "selectWinner",
      "outputs": [],
      "stateMutability": "nonpayable",
      "type": "function"
    },
    {
      "inputs": [],
      "name": "allPlayers",
      "outputs": [
        {
          "internalType": "address payable[]",
          "name": "",
          "type": "address[]"
        }
      ],
      "stateMutability": "view",
      "type": "function",
      "constant": true
    }
  ],
  "bytecode": "0x608060405234801561001057600080fd5b50336000806101000a81548173ffffffffffffffffffffffffffffffffffffffff021916908373ffffffffffffffffffffffffffffffffffffffff160217905550610bfa806100606000396000f3fe60806040526004361061007f5760003560e01c8063481c6a751161004e578063481c6a75146101ac5780635ec01e4d146101d7578063b0ec809414610202578063dfbf53ae1461022d576100fd565b8063087262961461010257806312065fe01461012d57806333a99e041461015857806335c1d3491461016f576100fd565b366100fd57670de0b6b3a7640000341461009857600080fd5b6001339080600181540180825580915050600190039060005260206000200160009091909190916101000a81548173ffffffffffffffffffffffffffffffffffffffff021916908373ffffffffffffffffffffffffffffffffffffffff160217905550005b600080fd5b34801561010e57600080fd5b50610117610258565b604051610124919061076b565b60405180910390f35b34801561013957600080fd5b50610142610265565b60405161014f919061076b565b60405180910390f35b34801561016457600080fd5b5061016d6102fc565b005b34801561017b57600080fd5b50610196600480360381019061019191906107b7565b61055a565b6040516101a39190610825565b60405180910390f35b3480156101b857600080fd5b506101c1610599565b6040516101ce9190610861565b60405180910390f35b3480156101e357600080fd5b506101ec6105bd565b6040516101f9919061076b565b60405180910390f35b34801561020e57600080fd5b506102176105f7565b604051610224919061093a565b60405180910390f35b34801561023957600080fd5b50610242610685565b60405161024f9190610825565b60405180910390f35b6000600180549050905090565b60008060009054906101000a900473ffffffffffffffffffffffffffffffffffffffff1673ffffffffffffffffffffffffffffffffffffffff163373ffffffffffffffffffffffffffffffffffffffff16146102f6576040517f08c379a00000000000000000000000000000000000000000000000000000000081526004016102ed906109b9565b60405180910390fd5b47905090565b60008054906101000a900473ffffffffffffffffffffffffffffffffffffffff1673ffffffffffffffffffffffffffffffffffffffff163373ffffffffffffffffffffffffffffffffffffffff161461038a576040517f08c379a0000000000000000000000000000000000000000000000000000000008152600401610381906109b9565b60405180910390fd5b600360018054905010156103d3576040517f08c379a00000000000000000000000000000000000000000000000000000000081526004016103ca90610a25565b60405180910390fd5b60006103dd6105bd565b90506000600180549050826103f29190610a74565b90506001818154811061040857610407610aa5565b5b9060005260206000200160009054906101000a900473ffffffffffffffffffffffffffffffffffffffff16600260006101000a81548173ffffffffffffffffffffffffffffffffffffffff021916908373ffffffffffffffffffffffffffffffffffffffff160217905550600260009054906101000a900473ffffffffffffffffffffffffffffffffffffffff1673ffffffffffffffffffffffffffffffffffffffff166108fc6714d1120d7b1600006104c0610265565b6104ca9190610b03565b9081150290604051600060405180830381858888f193505050501580156104f5573d6000803e3d6000fd5b50600067ffffffffffffffff81111561051157610510610b37565b5b60405190808252806020026020018201604052801561053f5781602001602082028036833780820191505090505b50600190805190602001906105559291906106ab565b505050565b6001818154811061056a57600080fd5b906000526020600020016000915054906101000a900473ffffffffffffffffffffffffffffffffffffffff1681565b60008054906101000a900473ffffffffffffffffffffffffffffffffffffffff1681565b600044426001805490506040516020016105d993929190610b87565b6040516020818303038152906040528051906020012060001c905090565b6060600180548060200260200160405190810160405280929190818152602001828054801561067b57602002820191906000526020600020905b8160009054906101000a900473ffffffffffffffffffffffffffffffffffffffff1673ffffffffffffffffffffffffffffffffffffffff1681526020019060010190808311610631575b5050505050905090565b600260009054906101000a900473ffffffffffffffffffffffffffffffffffffffff1681565b828054828255906000526020600020908101928215610724579160200282015b828111156107235782518260006101000a81548173ffffffffffffffffffffffffffffffffffffffff021916908373ffffffffffffffffffffffffffffffffffffffff160217905550916020019190600101906106cb565b5b5090506107319190610735565b5090565b5b8082111561074e576000816000905550600101610736565b5090565b6000819050919050565b61076581610752565b82525050565b6000602082019050610780600083018461075c565b92915050565b600080fd5b61079481610752565b811461079f57600080fd5b50565b6000813590506107b18161078b565b92915050565b6000602082840312156107cd576107cc610786565b5b60006107db848285016107a2565b91505092915050565b600073ffffffffffffffffffffffffffffffffffffffff82169050919050565b600061080f826107e4565b9050919050565b61081f81610804565b82525050565b600060208201905061083a6000830184610816565b92915050565b600061084b826107e4565b9050919050565b61085b81610840565b82525050565b60006020820190506108766000830184610852565b92915050565b600081519050919050565b600082825260208201905092915050565b6000819050602082019050919050565b6108b181610804565b82525050565b60006108c383836108a8565b60208301905092915050565b6000602082019050919050565b60006108e78261087c565b6108f18185610887565b93506108fc83610898565b8060005b8381101561092d57815161091488826108b7565b975061091f836108cf565b925050600181019050610900565b5085935050505092915050565b6000602082019050818103600083015261095481846108dc565b905092915050565b600082825260208201905092915050565b7f596f7520617265206e6f7420746865206d616e61676572000000000000000000600082015250565b60006109a360178361095c565b91506109ae8261096d565b602082019050919050565b600060208201905081810360008301526109d281610996565b9050919050565b7f506c617965727320617265206c657373207468616e2033000000000000000000600082015250565b6000610a0f60178361095c565b9150610a1a826109d9565b602082019050919050565b60006020820190508181036000830152610a3e81610a02565b9050919050565b7f4e487b7100000000000000000000000000000000000000000000000000000000600052601260045260246000fd5b6000610a7f82610752565b9150610a8a83610752565b925082610a9a57610a99610a45565b5b828206905092915050565b7f4e487b7100000000000000000000000000000000000000000000000000000000600052603260045260246000fd5b7f4e487b7100000000000000000000000000000000000000000000000000000000600052601160045260246000fd5b6000610b0e82610752565b9150610b1983610752565b925082821015610b2c57610b2b610ad4565b5b828203905092915050565b7f4e487b7100000000000000000000000000000000000000000000000000000000600052604160045260246000fd5b6000819050919050565b610b81610b7c82610752565b610b66565b82525050565b6000610b938286610b70565b602082019150610ba38285610b70565b602082019150610bb38284610b70565b60208201915081905094935050505056fea26469706673582212208d771eec7142b1e895c4414c5e8bba1eaf2e5fa158bd3e8865abc76435d8ec3a64736f6c634300080b0033",
  "immutableReferences": {},
  "source": "// SPDX-License-Identifier: MIT\r\npragma solidity >= 0.5.0 <0.9.0 ;\r\n\r\ncontract Lottery{\r\n    address public manager;\r\n    address payable [] public participants;\r\n    address payable public winner;\r\n    constructor()\r\n    {\r\n        manager=msg.sender; //global variable\r\n    }\r\n    receive() external payable{\r\n        require(msg.value==1 ether);\r\n        participants.push(payable(msg.sender));\r\n    }\r\n    function getBalance() public view returns(uint)\r\n    {\r\n        require(msg.sender == manager,\"You are not the manager\");\r\n        return address(this).balance;\r\n    }\r\n    function noOfParticipants() public view returns(uint)\r\n    {\r\n        return participants.length;\r\n    }\r\n    function random() public view returns(uint)\r\n    {\r\n       return(uint(keccak256(abi.encodePacked(block.difficulty,block.timestamp,participants.length))));\r\n    } \r\n    function selectWinner() public\r\n    {\r\n        require(msg.sender == manager,\"You are not the manager\");\r\n        require(participants.length>=3,\"Players are less than 3\");\r\n        uint r = random();\r\n        uint index = r % participants.length;\r\n       // address payable winner; \r\n        winner = participants[index];\r\n      //  uint rec = participants.length;\r\n        winner.transfer(getBalance()-1500000000000000000);\r\n        participants = new address payable[](0);\r\n        //return winner;\r\n     }\r\n     function allPlayers() public view returns(address payable[] memory)\r\n     {\r\n         return participants;\r\n     }\r\n}\r\n",
  "sourcePath": "D:\\blockchain\\Lottery_Dapp\\contracts\\Lottery.sol",
  "compiler": {
    "name": "solc",
    "version": "0.8.11+commit.d7f03943.Emscripten.clang"
  },
  "schemaVersion": "3.4.13",
  "updatedAt": "2023-03-24T10:34:47.211Z",
  "networkType": "ethereum",
  "devdoc": {
    "kind": "dev",
    "methods": {},
    "version": 1
  },
  "userdoc": {
    "kind": "user",
    "methods": {},
    "version": 1
  }
}